:020000040800F2
:10000000E00A0120E503000805050108A1C6000873
:1000100069040108CD390008D5740108000000000A
:1000200000000000000000000000000025030008A0
:10003000936E00080000000081030008A54001083D
:10004000FF030008FF030008FF030008FF03000888
:10005000FF030008FF030008796F0008FF03000892
:10006000FF030008836F00088D6F0008FF0300087E
:10007000FF030008FF030008FF030008FF03000858
:10008000FF030008FF030008FF030008FF03000848
:10009000D1390008FF030008FF030008976F00082C
:1000A000FF030008FF030008FF030008FF03000828
:1000B000FF030008FF030008FF030008FF03000818
:1000C000FF030008FF030008FF030008FF03000808
:1000D000FF030008494B0108FF030008C14B01085A
:1000E000FF030008FF030008FF030008FF030008E8
:1000F000FF030008FF030008FF0300088D640008E9
:10010000FF030008FF030008FF030008FF030008C7
:10011000FF030008FF030008FF030008FF030008B7
:10012000FF0300080965000819650008FF030008BF
:10013000FF030008FF030008FF030008FF03000897
:10014000E1390008FF030008FF0300081109010856
:10015000B16D0008C16D0008D16D0008FF030008F3
:10016000FF030008FF030008FF030008FF03000867
:10017000FF030008FF030008FF0300080000000061
:10018000FF030008FF03000800F002F800F0BAF8CF
:100190000AA090E8000C82448344AAF10107DA45E2
:1001A00001D100F0AFF8AFF2090EBAE80F0013F07A
:1001B000010F18BFFB1A43F001031847B0070200F4
:1001C000D007020010F8013B0A4413F0030408BFF3
:1001D00010F8014B1D1108BF10F8015B641E05D01B
:1001E00010F8016B641E01F8016BF9D1002D15D0D8
:1001F00010F8014B03F00C030C2BA1EB04040ABF15
:1002000010F8013BA4EB8314A4EB032405F10103D4
:1002100014F8016B5B1E01F8016BF9D5914238BFF0
:1002200010F8013BD1D3704700230024002500269D
:10023000103A28BF78C1FBD8520728BF30C148BF49
:100240000B6070476E2901F06381702901F0A5826F
:1002500066291DF0498265291DF0468267291DF037
:10026000438261291DF0428203681B0A28BF41F0C6
:100270008001692901F01081642901F00D8175293F
:1002800001F00A816F2901F03282782901F0718230
:10029000E92901F0CD81E42901F0CA81F52901F0B5
:1002A000C781EF2901F02F82F82901F070820368DD
:1002B000DB0928BF41F08001632901F0AB87732976
:1002C00001F0B087E32901F0BB87F32901F0C08773
:1002D000002070471FB51DF04FF99DE8030001F0A5
:1002E00037F802F00DF80400002000211CF06AF835
:1002F000401C6060002000211CF04EF8E0601FBD33
:1003000010B510BD01F0CFFF1146FFF7E3FF19F064
:1003100093FE02F0A7F803B4FFF7F2FF03BC18F056
:100320008CFB00002C4B19680868B0E8F04F80F394
:100330000988BFF36F8F4FF0000080F3118870477A
:100340000000000008480068006880F308884FF04B
:10035000000080F3148862B661B6BFF34F8FBFF31D
:100360006F8F00DF00BF00BF08ED00E0DFF80C007A
:10037000016841F470010160704700BF88ED00E042
:10038000EFF30980BFF36F8F134B1A681EF0100F45
:1003900008BF20ED108A20E9F04F106009B44FF03B
:1003A000500080F31188BFF34F8FBFF36F8F1BF0A6
:1003B000E7F94FF0000080F3118809BC196808685C
:1003C000B0E8F04F1EF0100F08BFB0EC108A80F3B9
:1003D0000988BFF36F8F7047AC000020EFF30580F2
:1003E000704700000948804709480047FEE7FEE7DC
:1003F000FEE7FEE7FEE7FEE7FEE7FEE7FEE7FEE7D5
:1004000004480549054A064B70470000854101082C
:1004100089010008E0CA0020E00A0120E0EA00208B
:10042000E0EA00209FED1A1AF5EE000A40EE010AFC
:10043000BDEEE00AF5EEC00A10EE100AF1EE10FA79
:1004400038BF401E00EE100A1349F7EE001AB8EE4E
:10045000C00A30EEC00ADFED0F0A20EE200AFCEEE3
:10046000C00A10EE900AC0F3080000EE900A01EBFB
:100470008000F8EE600A90ED011A70EE600A90EDCF
:10048000000A71EEE01A21EE800A00EE810A704740
:1004900083F9223E00000044E0FF0108DFED190A65
:1004A000B5EEC00A60EE200ABDEEE01A11EE100AA9
:1004B000F1EE10FA38BF401E00EE100A1349F7EEB5
:1004C000001AB8EEC00A30EEC00ADFED0F0A60EE87
:1004D000200ABCEEE00A10EE100AC0F3080000EE9D
:1004E000100A01EB8000B8EE400A90ED011A70EEA0
:1004F000C00A90ED000A71EEE01A21EE800A00EECB
:10050000810A704783F9223E00000044E0FF0108A1
:1005100070B405880E884468D1F804C05368B542A9
:1005200008D140884988884201BF11888D4251888E
:10053000884203D070BC6FF00200704705FB00F1E9
:10054000880827D094ED001ADCED000A94ED010A2A
:10055000DCED011A31EE201AD4ED020A70EE211AF8
:100560009CED020A83ED001AC3ED011A94ED031A03
:10057000DCED031A30EE800A401E71EE210A83ED95
:10058000020A04F11004C3ED030A03F110030CF195
:10059000100CD7D111F0030030D0B0F1004F30D2A1
:1005A00000282BDD211F1B1FACF1040210F0010FEE
:1005B0000AD091ED010AD2ED010A091D121D30EE9B
:1005C000200A83ED010A1B1D400817D091ED010A96
:1005D000D2ED010A401E30EE200A83ED010A91EDB2
:1005E000020AD2ED020A01F1080102F1080230EE1E
:1005F000200A83ED020A03F10803E7D170BC002052
:100600007047B4EC010A401EFCEC010A30EE200AEF
:10061000A3EC010AF5D1F1E7018042804360704705
:100620002DE9F34F84B00498406800904868019029
:100630000498B0F800E04588DFEDFE0A0020029043
:10064000B0EE600AAE4506D108884988884204BFEA
:100650007146864504D06FF0020006B0BDE8F08F09
:1006600001985FEA010C18BFB7EE001A3DD000BF39
:10067000BEEB0C0117D0B1F1004F80F01F820029B2
:1006800011DD021F11F0010F1CBFC2ED010A121D86
:100690004B1006D0C2ED010AC2ED020A08325B1E01
:1006A000F8D100EB8100BCF10102A0EC011A19D0D5
:1006B000B2F1004F80F00882002A13DD031F12F010
:1006C000010F1CBFC3ED010A1B1D511008D000BF54
:1006D000C3ED010AC3ED020A491E03F10803F7D175
:1006E00000EB8200BCF1010CC2D14FF00008039571
:1006F000002D14BFB0EE602A002000F0BF8100BFC3
:10070000009908FB05F001EB800B0199DBED002A55
:1007100001EB80000346F0EE421AC64552D9AEEB1B
:100720000802ABEB850112F0010F17D001EB850138
:1007300091ED000AB5EEC00AF1EE10FA07DDB4EE55
:10074000E10AF1EE10FA09DDF0EE401A06E0B1EE32
:10075000400AF4EEC01AF1EE10FAF5D3521031D07F
:1007600001EB850C9CED000AB5EEC00AF1EE10FA23
:1007700005DDB4EEE10AF1EE10FA09DD06E0B1EEB6
:10078000400AF4EEC01AF1EE10FA01D2F0EE401A6F
:1007900001EBC50191ED000AB5EEC00AF1EE10FAC9
:1007A00005DDB4EEE10AF1EE10FA09DD06E0B1EE86
:1007B000400AF4EEC01AF1EE10FA01D2F0EE401A3F
:1007C000521ECDD1F5EEC01AF1EE10FA00F0738191
:1007D000F5EEC02A0126F1EE10FA0099D4BFB1EE71
:1007E000620AB0EE620AB4EE610AF1EE10FA1CBFC2
:1007F000AEEB0802B2F1010C47D005FB08F201EBA9
:10080000820292ED001A00BFB0EE410A05FB06F429
:10081000B5EEC00A00EB8404F1EE10FACCBFF0EEA6
:10082000400AF1EE400AF4EE610AF1EE10FA28D126
:10083000B5EB080C11D0BCF1004F7DD2BCF1000F1C
:100840000BDD00BF92ED000AD1ED000ABCF1010CF6
:10085000E2EC010AA1EC010AF4D129000ED0B1F1B9
:10086000004F6AD2002909DD94ED000AD0ED000A9C
:10087000491EE4EC010AA0EC010AF5D10120029026
:100880000BE0761CBCF1010CBED10298012804D00B
:10089000F5EEC02AF1EE10FA7ED09BED000AB5EB22
:1008A00008009A465946064622D0B0F1004F74D24D
:1008B00000281DDD091F10F0010F06D0F0EE400AE0
:1008C00080EEA01A81ED011A091D401010D000BF62
:1008D000D1ED010A401E80EE801A81ED011A91EDE2
:1008E000021AC1EE000AC1ED020A01F10801EFD1BE
:1008F000280026D0B0F1004F7ED2002821DDAAF1D9
:10090000040110F0010F06D0D1ED010A80EE801A2B
:1009100081ED011A091D401013D000BFD1ED010A6D
:10092000401E80EE801A81ED011AD1ED020A80EEA0
:10093000801A81ED021A01E0CBE0D6E001F1080156
:10094000ECD1DDE900124FF000095FEA0E0773D029
:10095000C14504BF01EB860102EB850274D091ED25
:10096000000ADC465046330035D01C46B6F1004F35
:100970007ED2002C2FDD0B1FABF1040C16F0010F03
:100980000FD0F0EE400ADCED011AB0EE601A00EE76
:10099000E11A83ED011A01E08DE0B1E01B1D0CF1BD
:1009A000040C741015D000BFD3ED010A9CED011AA0
:1009B00040EE410AC3ED010AD3ED020A9CED021A92
:1009C0000CF1080C40EE410AC3ED020A0833641E24
:1009D000EAD101EB86012B0036D0B3F1004F72D281
:1009E000002B31DDA2F1040CAAF1040013F0010F79
:1009F0000CD0DCED010A00E08BE090ED011A001D47
:100A000040EE410ACCED010A0CF1040C5C1019D047
:100A1000DCED010A90ED011A40EE410ACCED010A2D
:100A2000DCED020A90ED021A083040EE410ACCEDEE
:100A3000020A03E0000000000DE005E0641E0CF176
:100A4000080CE5D102EB830201EB88017F1E09F15E
:100A500001097FF47DAF009808F10108001D0090A6
:100A60000398401E03907FF44BAE0299012900E0E9
:100A700058E004BF06B0BDE8F08F00BFB5EEC00A75
:100A8000F1EE10FA7FF4E9AD04990EFB05F3002BAB
:100A90004A684FF000010BD902EB810C9CED000A73
:100AA000B5EEC00AF1EE10FA02D1491C8B42F3D820
:100AB0008B427FF4D2AD6FF00400CEE5E0EC010A8A
:100AC000491EFBD1EFE538E0E0EC010A521EFBD1F4
:100AD00008E692ED000AD1ED000ABCF1010CE2EC4F
:100AE000010AA1EC010AF4D1B7E694ED000AD0EDB9
:100AF000000A491EE4EC010AA0EC010AF5D1BDE6AA
:100B0000D1ED000A401E80EE801AA1EC011AF7D147
:100B1000EEE6D3ED000A401E80EE801AA3EC011A27
:100B2000F7D10EE7BCEC011AD1ED000A5B1E40EED6
:100B3000410AE1EC010AF5D14DE7B0EC011AD2ED22
:100B4000000A5B1E40EE410AE2EC010AF5D17BE7A8
:100B50002DE9F04F82B046685368019305884788B5
:100B60004B88002000900888874201BFB2F800C07F
:100B70006545528893421EBF6FF0020002B0BDE887
:100B8000F08F9FED412A4FEA970EC7F3400B00BF4D
:100B9000DDE9000202EB800A4A6898464FF000093E
:100BA000B0EE420AB4465FEA0E0025D092ED001A7C
:100BB000DCED001A02EB8302DCED010A01EE810A92
:100BC00092ED001A02EB8302401ED2ED001A02EBF6
:100BD000830200EE810A9CED021ADCED030A000498
:100BE0000CF1100C000C01EE210A92ED001A02EB40
:100BF000830200EE810AD9D117F0030026D0ACF1B0
:100C00000404A2EB830210F0010F08D002EB830270
:100C1000D4ED010A92ED001A241D00EE810A5FEA6C
:100C20000B0013D002EB830CD4ED010A9CED001AEB
:100C300002EBC302401E00EE810AD4ED020A92EDDF
:100C4000001A04F1080400EE810AEBD109F1010059
:100C5000AAEC010A1FFA80F9486800EB8902A8F1A2
:100C600001001FFA80F8B8F1000F99D1009806EB47
:100C70008706184480B20090681E05042D0C87D1A9
:100C800002B00020BDE8F08F0000000070B40588BD
:100C90000E884468D1F804C05368B54208D1408832
:100CA0004988884201BF11888D425188884203D00B
:100CB00070BC6FF00200704705FB00F1880827D078
:100CC00094ED001ADCED000A94ED010ADCED011A46
:100CD00031EE601AD4ED020A70EE611A9CED020A40
:100CE00083ED001AC3ED011A94ED031ADCED031A2B
:100CF00030EEC00A401E71EE610A83ED020A04F173
:100D00001004C3ED030A03F110030CF1100CD7D14A
:100D100011F0030030D0B0F1004F30D200282BDDAD
:100D2000211F1B1FACF1040210F0010F0AD091ED3E
:100D3000010AD2ED010A091D121D30EE600A83ED91
:100D4000010A1B1D400817D091ED010AD2ED010ADE
:100D5000401E30EE600A83ED010A91ED020AD2EDE9
:100D6000020A01F1080102F1080230EE600A83ED87
:100D7000020A03F10803E7D170BC00207047B4EC0D
:100D8000010A401EFCEC010A30EE600AA3EC010AE5
:100D9000F5D1F1E72DE9F04F02884768B0F80280FD
:100DA0004888D1F8049082B04FF0000A164682427B
:100DB00007BF098888456FF0020002B018BFBDE880
:100DC000F08F4FEA980B02EB42000190C8F340000D
:100DD000CDF8000009EB8A01BBF1000F33D0019878
:100DE00001EB820C01EB80043B46E64601EBC205B9
:100DF0004FEA0B0093ED000A401E81ED000A93EDCF
:100E0000010A01EB02118CED000A93ED020A0CEBD2
:100E1000021C85ED000A93ED030A05EB021584ED33
:100E2000000A04EB021403F11003E3D10EEB82007D
:100E300000EB820000EB8201ABF10100504307EBB5
:100E40000B1701EB001118F0030C21D03B1FA1EB95
:100E500082011CF0010F06D093ED010A01EB820123
:100E60001B1D81ED000A009880B100BF93ED010ABF
:100E700001EB820401EBC20184ED000A93ED020A4A
:100E8000401E81ED000A03F10803EFD107EB8C0748
:100E90000AF101001FFA80FA701E0604360C99D17F
:100EA00002B00020BDE8F08F704770B5064600F034
:100EB00033FA056806F10B0020F00704B4429CBF2A
:100EC000002070BD2B466A68BAB11068A04210D3EA
:100ED00004F1080188423CBF5068586007D351684C
:100EE000101941601168091B016058601460101DE1
:100EF00070BD13465268002AE7D12146284600F00B
:100F000013FA0028DED170BD70B50446051F00F04D
:100F100003FA0068002C14BF446870BD002C18BF91
:100F2000AC423CBF20466468F8D301680A18AA4264
:100F300018BF456003D12A6805461144016028683E
:100F40004119A1421CBF6C6070BD61686960216875
:100F50000844286070BD53EA020C00F069802DE956
:100F6000F04B4FF00006002B1FBFB3FA83F503FAD6
:100F700005F424FA05F65E4012BF1643B2FA82F574
:100F800002FA05F4C5F120051EBF22FA05FC44EA69
:100F90000C04203556EA044C4FEA144418BF641C74
:100FA0004FF000084FF00009904271EB030C39D369
:100FB000002919BFB1FA81F701FA07F6B0FA80F7F4
:100FC00000FA07F6C7F120071EBF20FA07FC46EA21
:100FD0000C062037B6FBF4FCA7EB0507103F07F023
:100FE0001F0BCBF120060CFA0BFB2CFA06F644BFC4
:100FF000B3460026202FA4BF5E464FF0000B5BEAED
:10100000060C08BF4FF0010B19EB0B09ABFB027C80
:1010100048EB0608C01B06FB02CC0BFB03CC71EBB4
:101020000C01C1E70B46024641464846BDE8F08B3D
:1010300013B54FF000004FF00001AFF30080BDE8A2
:101040001C4070471CB50C46064B7B44694600901B
:10105000204600F076FA04460020694600F084FA43
:1010600020461CBD1B05000040EA010310B59B078C
:101070000FD1042A0DD310C808C9121F9C42F8D002
:1010800020BA19BA884201D9012010BD4FF0FF30B3
:1010900010BD1AB1D30703D0521C07E0002010BDC9
:1010A00010F8013B11F8014B1B1B07D110F8013B55
:1010B00011F8014B1B1B01D1921EF1D1184610BD36
:1010C00010B5431C02E010F8011B71B18107FAD181
:1010D0004FF0013202C88C1A8C4314EAC211F9D0C5
:1010E000C01A0A0603D0C01E10BDC01A10BD0A04E3
:1010F00001D0801E10BD0902FCD0401E10BD032A85
:1011000040F2308010F0030C00F0158011F8013B24
:10111000BCF1020F624498BF11F801CB00F8013B0B
:1011200038BF11F8013BA2F1040298BF00F801CBCF
:1011300038BF00F8013B11F0030300F02580083AA6
:10114000C0F0088051F8043B083A51F804CBA0E8FD
:101150000810F5E7121D5CBF51F8043B40F8043B52
:10116000AFF30080D20724BF11F8013B11F801CB87
:1011700048BF11F8012B24BF00F8013B00F801CB58
:1011800048BF00F8012B704710B5203AC0F00B8023
:10119000B1E81850203AA0E81850B1E81850A0E87B
:1011A0001850BFF4F5AF5FEA027C24BFB1E81850D5
:1011B000A0E8185044BF18C918C0BDE810405FEA45
:1011C000827C24BF51F8043B40F8043B08BF7047C1
:1011D000D20728BF31F8023B48BF11F8012B28BFC6
:1011E00020F8023B48BF00F8012B704702F0FF03D4
:1011F00043EA032242EA024200F002B84FF0000242
:101200000429C0F0128010F0030C00F01B80CCF118
:10121000040CBCF1020F18BF00F8012BA8BF20F886
:10122000022BA1EB0C0100F00DB85FEAC17C24BFDA
:1012300000F8012B00F8012B48BF00F8012B704784
:101240004FF0000200B5134694469646203922BF5F
:10125000A0E80C50A0E80C50B1F12001BFF4F7AFAA
:10126000090728BFA0E80C5048BF0CC05DF804EB8C
:10127000890028BF40F8042B08BF704748BF20F8FA
:10128000022B11F0804F18BF00F8012B70470000AF
:101290004FF0013C50F8042B51F8043B9A4221D105
:1012A000A2EB0C03934313EACC1317D150F8042B91
:1012B00051F8043B9A4215D1A2EB0C03934313EA75
:1012C000CC130BD150F8042B51F8043B9A4209D1AE
:1012D000A2EB0C03934313EACC13DBD04FF00000D6
:1012E000704700BFD01A01BAB1FA81F101F01801BC
:1012F00022FA01F0CB40C1F12001DBB2C0B2C01A2A
:101300002CFA01F3D11A914311EAC311E6D17047C7
:1013100070477047704770470048704784CA002084
:10132000704770477047704738B504460A4600203A
:101330006946AFF30080002808BF38BD0246009917
:10134000204600F001FB012038BD012000F0A4BFC1
:10135000F8B5AFF30080054600200C46102000BF12
:101360000646A819A0420DD9324669460020AFF3BF
:101370000080070008BF00F08FFF0098A04218BF50
:101380000546C419FFF7C8FF05600746F01D20F0A9
:1013900007004619284600F00AF8B44208BFF8BD15
:1013A000A21B31463868BDE8F84000F0CDBA0021F4
:1013B0000160C0E9011070471020704710B500F0BF
:1013C000BFFA006810BD10B5044600F0B9FA046019
:1013D00010BD70B5044685690068C10601D5302688
:1013E00000E02026C00707D070BDD4E901213046B7
:1013F0009047206A401C20626D1EF6D570BD70B506
:10140000044685690078C00707D170BDD4E9012181
:1014100020209047206A401C20626D1EF6D570BDCA
:1014200009684A0501D540B27047C905FCD500B22C
:10143000704709684A0501D5C0B27047C905FCD597
:1014400080B2704770B50C460546012A05D0287851
:10145000800600D5EA69002302E0012305E05B1C59
:10146000934202D2E05C0028F9D1A869E618C01ABC
:10147000A861286A184428622846FFF7AAFF04E0FA
:10148000D5E9012114F8010B9047B442F8D328465E
:10149000FFF7B5FF70BD00002DE9F04106460024BE
:1014A00010687529314616A510D0FFF7B9FF00283E
:1014B00002DA404213A507E031688A0701D512A578
:1014C00002E0490704D511A5012401E0FFF7B1FFAF
:1014D00000210A2206F1240709E0B0FBF2FCB0FB70
:1014E000F2F302FB1C00303078541846491C0028E7
:1014F000F3D123462A463046BDE8F04100F09CBABD
:10150000000000002D0000002B0000002000000063
:1015100011680268006A530501D508700AE0D30516
:1015200001D5088006E0130603D5C217C1E9000201
:1015300000E008600120704701694A1C02610878D8
:10154000704700B58FB0CDE9013100210591054903
:101550007944CDE903101146684600F029F90FB02F
:1015600000BD0000E5FFFFFF0A6802F8010B0A60FA
:10157000704700002DE9FF5F15468A460446DFF8F4
:10158000AC80F8440027D8E900103E46CDE90010B1
:1015900010E03AF816106A4602A800F05DFE411C01
:1015A00007D02178890603D5E269391891420DD810
:1015B0000744761C2078800602D5E069B84205DD34
:1015C000AE42E6DB3AF816000028E2D1A069C01B63
:1015D000A0612046FFF7FDFED8E90010CDE900101C
:1015E000002017E03AF818106A4602A800F034FE0E
:1015F000B0F1FF3F81460BD000250DF1080B05E04F
:10160000D4E901211BF8050090476D1C4D45F7D327
:1016100008F10100B0428046E4DB206A38442062D1
:101620002046FFF7ECFEBDE8FF9F00008EF20100B0
:101630002DE9F0418046D21D22F007020025D2E9B3
:101640000002F52915A614D0011E72F1000106DA78
:101650000023D0EB030063EB020211A608E0D8F8E8
:1016600000108B0701D50FA602E0490701D50EA691
:1016700001251146002408F1240704E000F07EF95A
:1016800030323A55641C50EA0102F7D12B463246FB
:1016900021464046BDE8F04100F0CEB90000000010
:1016A0002D0000002B0000002000000030B40021BD
:1016B00000F1240408E002F00705D208303542EAC0
:1016C0004372DB086554491C52EA0305F3D10468F0
:1016D000002310A2250707D5A40600D421B1C469B0
:1016E00001230DA2641EC46130BC00F0A5B910B581
:1016F000044621461068FFF79CFE02462046BDE8DE
:1017000010400023D2E7D21D22F00701D1E90023C7
:10171000CCE700000000000030000000F0B40D46EF
:101720000188090502D5214C7C4402E01F4C7C4411
:101730000E34002100F1240608E002F00F07120920
:10174000E75D42EA03721B097754491C52EA03071A
:10175000F3D102780023120704D5702D06D009B109
:10176000022311342246F0BC00F066B90123103484
:10177000F8E770B504460D4621461068FFF759FE9C
:10178000024629462046BDE870400023C6E7D21D28
:1017900022F00703D3E90023C0E70368126843F08F
:1017A000200303600823C3610023B7E7F0F00100C2
:1017B0002DE9F05F894604464FF0000ADFF874B166
:1017C000FB44C0F820A02046E1688847002874D078
:1017D000252806D0D4E901219047206A401C2062C8
:1017E000F1E700265F462046E16888472028054645
:1017F00007DB312D05D2781910F8200C08B106430B
:10180000F1E7B00701D526F00406C4F81CA00027B4
:10181000C4F818A02A2D09D0284617F007F938B3C4
:1018200004EB8708303DC8F8185019E059F8041B3C
:10183000204604EB87029161E1688847012F054645
:1018400018D1E069002820DA26F020061DE0D8F83B
:10185000180000EB800005EB40003038C8F8180095
:101860002046E1688847054617F0E0F80028EED1E9
:10187000012F0AD02E2D08D12046E16888477F1C11
:101880000546022F46F02006C4DBA069002803DAD3
:10189000404246F00106A061F00701D026F0100694
:1018A0006C2D0BD0682D09D04C2D39D06A2D35D038
:1018B000742D35D07A2D33D016E038E0E1682F460C
:1018C00020468847B842054609D16C2F26D04FF4F0
:1018D0008060E168064320468847054604E06C2F97
:1018E0001AD04FF4807006430DB3A5F141001928BA
:1018F00002D8203546F400664A462946204626602E
:101900004E46FEF79FFC80B101280BD0F61D26F055
:10191000070000F1080956E74020E4E78020D8E7F7
:101920000020D6E706F104094DE7284652E7206A71
:10193000BDE8F09F80F00100004870477CCA00209D
:10194000004870477CCA0020034640688C46002847
:1019500018BF88423CBF03464068F8D31868184453
:10196000884207D00CF1030020F00700001D411A47
:10197000521A0146081D0A60FFF7C6BA30B5B0F129
:101980000A024FEA900E71F100034EEA817EB0EB3D
:101990000E0061EB91014FEA101E4EEA017E10EB42
:1019A0000E0041EB11114FEA102E4EEA016E10EBC2
:1019B0000E0041EB11214FEA104E4EEA014E10EBA2
:1019C0000E0041EB1141401841F100014FEAD000F7
:1019D00040EA41704FEAD10110EB80054FEA8104E3
:1019E00044EA907444EB01046D1944EB0404521B67
:1019F000A3414FF0000348BF0A3200D530BD401C60
:101A000041F1000130BD00001FB584B000200A9CE8
:101A100006AB04AA02A90094AFF3008018B1DDE977
:101A2000020108B010BD0348204000F029FD00204D
:101A30000146F6E70000207C2DE9F0470D46994667
:101A40009246044600F124080168880604D5E0693E
:101A500021F01001216000E00120A84201DD471BB8
:101A600000E00027A1697A1902EB0900081AA061B9
:101A70002078C00602D42046FFF7ABFC002608E021
:101A8000D4E901211AF806009047206A401C761C10
:101A900020624E45F4DB2078C0060AD52046FFF7C9
:101AA00098FC06E0D4E9012130209047206A401CD0
:101AB0002062381EA7F10107F4DC07E0D4E9012118
:101AC00018F805009047206A401C2062281EA5F1E6
:101AD0000105F3DC2046FFF792FC2078000602D5D2
:101AE0000220BDE8F0870120FBE770472DE9FF4F9A
:101AF0000C461E464FF0FF378BB0D2E90001DDF8EF
:101B000060800A908A46C1F30A5505B93D46002116
:101B100008461BF0D9FDBAF1000F00F4400005DAC9
:101B200000EB80004FF4400101EA50004FEA905969
:101B3000B9F1010F00DDB9460A9850EA4A000ED00B
:101B400044F61050A5F2FF3545432F14B8F1000FAD
:101B50001ED07542291E1EDDC9F100021CE0B8F13D
:101B6000010F4FF0000001D0302103E0F24305E007
:101B70002154401CB042FBDB30460022002121549E
:101B80000B99C1F80880C1E900200FB0BDE8F08FC3
:101B9000BD1B6D1CDEE74A4600DA694206A800F06C
:101BA000F3FB06AB93E8070003AB83E8070050465E
:101BB0000A9900F005FD8DE80700A0F500501F38D8
:101BC00000900398002D09DD42F21F014A460844A7
:101BD00003A90390684600F064FF08E0A0F50050F8
:101BE0004A461F3803A90390684600F06EFF8DE84F
:101BF00007000004000C03D04FF0FF30410800E064
:101C00001046B8F1000F03D00022009215461EE0E6
:101C1000751E05D4FFF7B2FE303262556D1EF9D540
:101C2000B3460122084302D000227F1C04E0207842
:101C3000302801D100227F1E002A099786D01DE09E
:101C4000112D07DAFFF79AFE303262556D1C50EA0B
:101C50000102F5D1084302D00098C8B10EE000217E
:101C6000681E05E0235C625C63542254401E491CDC
:101C70008142F7DBAB46A81B401E0990002004F808
:101C80000B000B98099AC0F80880C0E9002B7CE78C
:101C900011264FF0000859E72DE9F04F8846044619
:101CA000D21D22F0070191B0D1E90001CDE90A016E
:101CB00015F0E6FF02460B98C00F01D02D2007E07B
:101CC0002068810701D52B2002E0202101EAC00015
:101CD000032A099001D0072A05DB03464146204626
:101CE00000F012FB0BE12078800601D5E06900E0EE
:101CF0000620B8F1650F814606D0B8F1660F18D0FE
:101D0000B8F1670F70D131E00020B9F1110F0090E8
:101D100001DB112301E009F101030AAA01A90CA8C2
:101D2000FFF7E4FEDDE90C70002609F101058346AA
:101D300047E001204B4600904FF000470AAA01A956
:101D40000CA8FFF7D3FEDDE90DB00C995D46002627
:101D500010B909F101000D18B9EB050003D4C0F169
:101D6000FF3609F10105A5EB09002BE0B9F1010FE0
:101D700001DA4FF001090020B9F1110F0090484637
:101D800001DD112300E003460AAA01A90CA8FFF710
:101D9000ADFEDDE90C704D46002683462078000735
:101DA0000AD4AB4500DA5D4601A8012D04DD4119D6
:101DB00011F8011C302907D04F4502DA17F1040F42
:101DC00004DA012082460FE06D1EEEE7002F02DCF0
:101DD000ED1B3E4403E0781CA84200DD7D1CB81BCF
:101DE00000F1010A4FF000472078000703D4AA450C
:101DF00001DB4FF0FF3A0021B7F1004F0DF143082E
:101E00008DF8431024D002202B23002F01DA7F42CB
:101E10002D230A21021EA0F1010000DC5FB197FB17
:101E2000F1FC97FBF1F201FB1C7C17460CF1300C26
:101E300008F801CDEEE7A8F101000370218809053B
:101E400001D5452100E06521A0F1010800F8011C41
:101E500009980FA9A1EB0807FF1D00B10120411946
:101E600001EBEA70A1693844081A401EA06120788D
:101E7000C00602D42046FFF7ACFA099828B1D4E98D
:101E800001219047206A401C20622078C00622D59C
:101E90002046FFF79EFA1EE0002E04DBB34502DD6C
:101EA00001A8805D00E03020D4E901219047206A3C
:101EB000401C2062761CAAF101005FEA000A0AD1E8
:101EC00000F01EFAC0680168405CD4E90121904727
:101ED000206A401C2062281EA5F10105DCDC07E019
:101EE000D4E9012118F8010B9047206A401C2062B8
:101EF000381EA7F10107F3DC2046FFF780FA032024
:101F000011B043E62DE9F04F04460D46D21D22F0F4
:101F1000070089B0D0E900974846394615F0B0FE71
:101F20000246F80F01D02D2307E02068810701D574
:101F30002B2302E0202101EAC0038DF820300BB1F1
:101F4000012000E00020032A824601D0072A04DB9A
:101F50002946204600F0D8F93FE12078800601D4D8
:101F60000D2500E0E569C7F30A560D2D49DA002179
:101F70004FEA175B08461BF0A7FB002F00F4400058
:101F800007DA00EB80004FF4400100EBD07001EA6B
:101F900060008115012901DD4FF0FF3100224FEA79
:101FA000850CBCF1180F06D31346ACF118004FF0A6
:101FB0008052C24003E04FF4801323FA0CF30CF17B
:101FC0000C0CBCF1200F04D3ACF1200C09FA0CF07E
:101FD00001E007FA0CF000294FF0004801DD18B9C4
:101FE0000FE00ED140450CD319EB02095F4121B936
:101FF000404502D19F4329EA0209BBEB175F00D09D
:10200000761C2088000502D57B48784402E07A4897
:102010007844193808AA302302F80A30037C0AF100
:102020000101002E0AF1020A53546A4602DC4FF005
:10203000300101E04FF031014FF001088DF8001040
:1020400002D0A6F2FF3603E059EA470100D06B4EFA
:10205000002D02DC2178090704D54FF002082E215B
:102060008DF80110C44600210BE0C7F303433F0184
:10207000C35C491C6D1E02F80830052908F10108EF
:1020800001DA002DF1DC00210CE000EB1973491C92
:102090001B786D1E082902F808304FEA091908F16B
:1020A000010801DA002DF0DC21688B0602D516E06C
:1020B000A8F10108E04505DD02EB080313F8013C37
:1020C000302BF5D0B8F1000F09DD02EB080313F84F
:1020D000013C2E2B03D1090701D4A8F10108002DE2
:1020E00005DD3E2102F808106D1E08F10108407C54
:1020F000002E02F8080008F1010804DA2D207642CB
:1021000002F8080002E02B2002F808000A214FF430
:102110007A70864208F101080BDB96FBF0F330334E
:1021200002F8083096FBF0F308F1010800FB136693
:1021300001E0642E0CDB642096FBF0F3303302F8F0
:10214000083096FBF0F308F1010800FB136601E08C
:102150000A2E06DB96FBF1F0303002F8080008F199
:10216000010896FBF1F001FB1060303002F8080026
:10217000A16908F1010808EB050202EB0A00081A40
:10218000A0612078C00602D42046FFF722F9216A18
:1021900008AE01EB0A00206204E0D4E9012116F840
:1021A000010B9047BAF1010AF7D22078C00602D598
:1021B0002046FFF70EF96E4609E016F8010B3E289F
:1021C0000FD0D4E901219047206A401C2062B8F169
:1021D0000108F2D22046FFF712F909B00320BDE84A
:1021E000F08F206A2844206203E0D4E901213020E6
:1021F00090476D1EEBD3F8E77DE8010002FCFFFF7E
:1022000010B5436913B1AFF3008001E0FFF71AF98D
:10221000012010BD127800F124010A7000224A70DA
:102220000122EDE711684FF0FF32E9E710B543698D
:1022300013B1AFF3008001E0FFF79CF9012010BD5E
:10224000128800F1240182840022C2840122EDE779
:1022500011684FF0FF32E9E770B516460C460546A7
:1022600000F046F8036893F80101012806D0FF2C1E
:102270000FD8185D68B101202C7070BDD3F807012C
:102280003246214603F2071303442846BDE8704056
:1022900018474FF0FF3070BD10B500F0F9F8BDE8F9
:1022A000104000F0E8B87546FFF746FBAE46050063
:1022B0006946534620F00700854618B020B5FEF762
:1022C0009FF8BDE820404FF000064FF000074FF0A8
:1022D00000084FF0000B21F00701AC46ACE8C00944
:1022E000ACE8C009ACE8C009ACE8C0098D4670474D
:1022F00010B500F005F8001D10BD00BFC9A0010019
:10230000004870479CCA00202DE9F0411F46044652
:1023100003260168072A01F4006004DB08B116A552
:1023200005E016A503E008B115A500E015A521F00C
:1023300010002060A069C01EA0610FB1401EA06106
:102340002046FFF746F84FB1D4E9012138469047BF
:10235000206A401C2062C01C206206E0206AFAE766
:10236000D4E9012115F8010B9047761EF8D22046DA
:10237000FFF745F8BDE8F0814E414E006E616E00FA
:10238000494E4600696E66002DE9F04781461646C3
:102390008AB0334878440DC88DE80D003048784441
:1023A000801C03AC0DC884E80D0041F69B30084446
:1023B000372190FBF1F290FBF1F5A5F1800501FBCF
:1023C00012041B3C02D56442012000E00020DFF82B
:1023D00090A080460027FA44AAF1BE0A0DE0E0076B
:1023E00009D03246684607EB47010AEB810100F04D
:1023F0006CFB8DE8070064107F1C002CEFD1184F98
:102400007F44AC3F18E0E80714D007EB04100DF14F
:10241000180A90E80E008AE80E00C068F04201D168
:1024200098190890324606A903A800F04EFB03ABAA
:1024300083E807006D10641C002DE4D13246694624
:10244000B8F1000F03A802D000F02BFB01E000F070
:102450003CFBC9E90001C9F808200AB0BDE8F087D3
:1024600084E5010010B50446AFF300802046BDE8C6
:102470001040FDF750BF002801D016F0DEBA7047BB
:1024800010B500F047F8BDE81040FFF7F4BF0000BA
:1024900010B5012805D0002103A000F021F801208B
:1024A00010BD09A1F8E7000053494752544D454D6E
:1024B0003A204F7574206F662068656170206D65E5
:1024C0006D6F7279000000003A2048656170206DE0
:1024D000656D6F727920636F7272757074656400D8
:1024E00070B505460C460A2000E06D1C16F0A8FAEF
:1024F00035B128780028F8D102E0641C16F0A0FA63
:1025000014B120780028F8D1BDE870400A2016F0F8
:1025100097BA000010B5022803D0410103D50DA1E0
:1025200012E0002010BD010101D50FA10CE0C10097
:1025300001D511A108E0810001D512A104E04000FD
:1025400001D513A100E0002115A0FFF7C9FF01206C
:1025500010BD0000496E76616C6964204F70657231
:102560006174696F6E000000446976696465204299
:1025700079205A65726F00004F766572666C6F77CE
:1025800000000000556E646572666C6F7700000095
:10259000496E657861637420526573756C740000D0
:1025A0005349474650453A2041726974686D6574D5
:1025B000696320657863657074696F6E3A20000006
:1025C0005FEA400C08BF91F0000F4FEA8C234FEAFE
:1025D000C12243EA51514FEA1C5018BF00F5F040A8
:1025E0004FEA300018BF41F000415FEA6C5C00F038
:1025F0002980BCF1FF3F08BF40F080407047130CBA
:1026000006BF12044FF0100C4FF0000C130E04BF65
:1026100012020CF1080C130F04BF12010CF1040C90
:10262000930F04BF92000CF1020CD30F04BF5200B1
:102630000CF1010C11464FF00002A0F11F00A0EBBD
:102640000C00704711F0004F08BF704731F0004197
:102650003FF4D5AF0B0C06BF09044FF0100C4FF040
:10266000000C0B0E04BF09020CF1080C0B0F04BF89
:1026700009010CF1040C8B0F04BF89000CF1020C52
:10268000CB0F04BF49000CF1010CCCF12003A0EBEF
:102690000C0022FA03F302FA0CF241EA030100F102
:1026A0000100704720F07F4C80EA030023F07F4751
:1026B000ACEB070303F57C5300F0004003F1FF038C
:1026C0002DE980494FEA154B09B44FEA144325EA36
:1026D0000B4E24EA03480FF2042606EB13274908A1
:1026E0003E785FEA320203FB0667C7F5000707FB87
:1026F00006F64FEA54374FEAD64606F1020607FBC4
:10270000066CCCF1005C4FEA1C472CEA074C07FB37
:1027100006F40CFB06F504EB15464FEA961634BF9B
:1027200000204FF000404FEAD13706FB07FC4FEA8C
:102730001C4C0CFB0BF7D21B03FB0CF761EB0701E6
:102740000CFB0EF7B0EB074072EB17420CFB08F7DF
:1027500034BFA2EB0742B2EB074261EB17414FEAED
:102760000C444FEA910706FB07FC4FEA1C4C0CFB9C
:102770000BF7B0EBC74072EB573203FB0CF734BFDB
:10278000A2EBC742B2EBC74261EB57310CFB0EF72D
:10279000B0EBC70072EB57720CFB08F734BFA2EB2B
:1027A000C702B2EBC70261EB5771039F4FEA816129
:1027B00041EA921104EBCC044FEAD1374FEA82622E
:1027C00006FB07FC42EA90124FEA80604FEA1C4C7D
:1027D0000CFB0BF7D21B03FB0CF761EB07010CFBA7
:1027E0000EF7B0EB074072EB17420CFB08F734BF53
:1027F000A2EB0742B2EB074261EB17414FEA8C555F
:102800004FEA910704EB9C2406FB07FC4FEA1C4CA3
:102810000CFB0BF7B0EBC74072EB573203FB0CF726
:1028200034BFA2EBC742B2EBC74261EB57310CFB9E
:102830000EF7B0EBC70072EB57720CFB08F734BF12
:10284000A2EBC702B2EBC70261EB577115EB4C2547
:102850004FEA816141EA92114FEA82624FEAD13731
:1028600042EA901206FB07FC44F100044FEA806044
:102870004FEA1C4C0CFB0BF7D21B03FB0CF761EB74
:1028800007010CFB0EF7B0EB074072EB17420CFB95
:1028900008F734BFA2EB0742B2EB074261EB1741E6
:1028A00015EB1C154FEA813141EA92414FEA823221
:1028B00042EA90424FEA80304FEA0C7644F100043D
:1028C00048EA03434EEA0B484FF0000EB2EB080C07
:1028D00071EB030724BF624639464EEB0E0E4FF0F4
:1028E000000B0018524149414BEB0B0BB2EB080CAB
:1028F00071EB03077BF1000B24BF624639464EEBB8
:102900000E0E4FF0000B0018524149414BEB0B0BE0
:10291000B2EB080C71EB03077BF1000B24BF62469E
:1029200039464EEB0E0E51EA020718BF46F001067B
:1029300016EB0E7655F1000254F1000103D5BDE807
:102940008901BDE80088BDE88901BDE80048B619E5
:10295000524141EB0101A3F10103704780807F7E6A
:102960007D7C7B7A79787776767574737271717005
:102970006F6E6E6D6C6C6B6A6A69686867666665B7
:102980006464636362616160605F5F5E5E5D5D5C45
:102990005C5B5B5A5A5959585857575656555555B6
:1029A0005454535352525251515050504F4F4F4E16
:1029B0004E4D4D4D4C4C4C4B4B4B4A4A4A49494964
:1029C00048484847474747464646454545444444A6
:1029D000444343434342424242414141002B26D4B7
:1029E000770021D01CB54FEA370703B44FF0100031
:1029F0004FF010011AF068FE0FBCBDE810400BF15B
:102A0000010BBBF1010F08BF5FEA170722BF12F1EC
:102A1000010211F101014FF0004143F1000300F008
:102A2000004043EA00007047F9D35708DAE746EA66
:102A3000064613F1400F4FEA16461FDD13F1200F33
:102A4000DFBF16430A46002120335B42C8D0C3F1E2
:102A5000200746EA064602FA07F74FEA164646EA14
:102A60000706C3F1200722FA03F201FA07F721FA59
:102A700003F14FF0000342EA0702B1E746EA02061B
:102A800046EA06464FEA164646EA0106BCBF46EA53
:102A90000646360C4FF000034FF000024FF00001E5
:102AA0009EE72DE9C048934630B491E8380007C846
:102AB00031EA400C48BF34EA430C03D5FFF7F2FD7E
:102AC000FFF78CFFF0BCBDE800882DE9C0489346B5
:102AD00030B491E8380007C810F0804F08BF13F0F9
:102AE000804F03D100F005F8FFF778FFF0BCBDE898
:102AF000008820F07F4780EA030023F07F4C07EB3B
:102B00000C03A3F57C5300F00040A3F1FE0392F008
:102B1000000F00F0B38095F0000F00F077802DE9F2
:102B200001494FEA11404FEA144621EA004800FBF0
:102B300006FC24EA064708FB06F607FB08F800FB3C
:102B400007F718EB06484CEB164C4FEA124B18EB04
:102B500007484FEA15464CEB174022EA0B4E0BFB99
:102B600006FC25EA06470EFB06F607FB0EFE0BFBEE
:102B700007F71EEB064E4CEB164C4FF000061EEB13
:102B8000074E4CEB174B18EB0B0840F1000018EB0D
:102B90000E0B58EB000840F100008F1A4FF00001B7
:102BA0003CBFC943661B14BFB5EB040C00213CBFFE
:102BB000C943F61B4FEA17444EEA8E0E27EA044536
:102BC0004FEA1C4704FB07622CEA074C05FB07F79A
:102BD0000CFB05F604FB0CFC16EB074642EB174218
:102BE00016EB0C4642EB1C421BEB060658EB0202AE
:102BF000414146EA9E0601D5BDE80189B619524118
:102C000041EB0101A3F10103BDE801894FEA14453D
:102C10004FEA114724EA054621EA074C05FB07F471
:102C200006FB07F70CFB06F105FB0CFC11EB07415B
:102C300044EB17444FEA124711EB0C4144EB1C44A0
:102C400022EA074C05FB07F206FB07F70CFB06F62A
:102C500005FB0CFC16EB074642EB174216EB0C4645
:102C600042EB1C456A1854F1000148BF7047B61981
:102C7000524141EB0101A3F10103704795F0000FB0
:102C800037D04FEA11424FEA144721EA024624EABC
:102C9000074C02FB07F106FB07F70CFB06F402FBEF
:102CA0000CFC14EB074441EB17414FEA154714EBBA
:102CB0000C4441EB1C4125EA074C02FB07F506FBDF
:102CC00007F70CFB06F602FB0CFC16EB074645EB80
:102CD000174516EB0C4645EB1C42121951F1000149
:102CE00048BF7047B619524141EB0101A3F10103FE
:102CF00070474FEA14454FEA114724EA054621EA96
:102D0000074C05FB07F106FB07F70CFB06F24FF03B
:102D1000000605FB0CFC12EB074241EB174112EBDE
:102D20000C4251EB1C4148BF7047921841EB010126
:102D3000A3F10103704700004A494A6822F4403277
:102D40004A604A6843681A434A6001684A6822F444
:102D500080724A6001684A68036942EA03224A6055
:102D600001684A6822F040724A6001684A688368D4
:102D70001A434A6001688A6822F400628A60016826
:102D80008A68C3681A438A60816A6FF07062D142B0
:102D900014D001688A6822F070628A6001688A68CB
:102DA000836A1A438A6001688A6822F040528A6006
:102DB00001688A68C36A1A438A6009E001688A6800
:102DC00022F070628A6001688A6822F040528A604C
:102DD00001688A6822F002028A6001688A68037EBC
:102DE00042EA43028A6090F8201089B101684A687B
:102DF00042F400624A6001684A6822F460424A6014
:102E000001684A68436A5B1E42EA43324A6004E052
:102E100001684A6822F400624A600168CA6A22F4C2
:102E20007002CA620168CA6A838B5B1E42EA03525F
:102E3000CA6201688A6822F400728A6001688A683E
:102E400090F8303042EA43228A6001688A6822F4AE
:102E500080628A6001688A68406942EA80208860EE
:102E6000704700000023014010B52DED028BB0EE3D
:102E7000408AB0EE480A14F0CDFFBDEC028B10BDC5
:102E800010B52DED028BB0EE408AF0EE608AF0EEC8
:102E9000680AB0EE480A15F053F8BDEC028B10BD7D
:102EA00010B52DED028BB0EE408AB0EE480AFDF76A
:102EB000B9FABDEC028B10BD18B19FED020A80ED8E
:102EC000000A70470000000018B1B3EE060A80ED5A
:102ED000000A704770B52DED0C8B84B006460C4689
:102EE00015469FED990AF0EE408A9FED970AB0EEE5
:102EF000409A9FED950AF0EE40BA9FED930AF0EEEE
:102F0000409A9FED910AB0EE40AA0EB104B11DB9EE
:102F100004B0BDEC0C8B70BD8C48FFF7CDFF8C4826
:102F2000FFF7D2FF8A48D0ED000A9FED8A1A60EEC3
:102F3000810AB0EE600A00F02DF9F0EE408A28EE2A
:102F4000A80AF0EE408A8248D0ED000AB0EE001ADE
:102F500060EE810A9FED7F1A60EE810AB0EE600A92
:102F600000F018F9B0EE409A29EE090AB0EE409A46
:102F7000DFED790AB7EE000A00EEA80ADFED770A66
:102F800000EEC90ADFED760A20EE200A754880EDD2
:102F9000000A6E4890ED000ADFED730A80EE201AF9
:102FA000B7EE000A31EE000A20EE000A6D48D0EDBF
:102FB000000A80EE801A6D4880ED001A94ED000A38
:102FC000B5EEC00AF1EE10FA0DD194ED010AB5EE9E
:102FD000C00AF1EE10FA06D194ED020AB5EEC00A6D
:102FE000F1EE10FA46D09FED580AB0EE408A00206C
:102FF000019002900390D4ED000A60EEA00A94EDD7
:10300000011AD4ED011A41EE210A94ED021AD4ED11
:10301000021A41EE210AB0EE600A00F0A9F8B0EE03
:10302000408A94ED000A20EE080A8DED010A94ED25
:10303000010A20EE080A8DED020A94ED020A20EE44
:10304000080A8DED030ADDED010AF1EE600AB0EE2B
:10305000600AFFF709FFF0EE409A9DED031AF0EECB
:10306000410A9DED021AB0EE410AFFF709FFB0EEEA
:1030700040AA07E09FED340AF0EE409A9FED320A35
:10308000B0EE40AA95ED000AB5EEC00AF1EE10FAD6
:103090000DD195ED010AB5EEC00AF1EE10FA06D198
:1030A00095ED020AB5EEC00AF1EE10FA3CD0B0EE92
:1030B000690A00F06FF8B0EE408AB0EE690AFFF7D7
:1030C000EFFEB0EE40DAB0EE4A0A00F063F8F0EE40
:1030D00040AAB0EE4A0AFFF7E3FEB0EE40BA28EE8F
:1030E0002A0AD5ED010A20EE200AD5ED000A0DEEE0
:1030F000200A68EE0B0A95ED021A00EE810AB0EE86
:1031000040CA95ED010A20EE0B0AD5ED020A0AEE3F
:10311000E00AF0EE40CAF0EE6C0AB0EE4C0AFFF79F
:10312000AFFEF0EE40BA03E09FED070AF0EE40BAC2
:10313000B0EE4A1AF0EE690AB0EE6B0A304615F0AE
:10314000ABFC00BFE4E60000000000006C1A0020A9
:10315000701A002035FA8E3CC1BFAD3B9DF8C536D4
:103160002F7C1C41741A0020506CC24A781A00202F
:1031700010B52DED028BB0EE408AB0EE480A15F086
:10318000B2FAB7EE001AC1EE000AB0EE600ABDEC6A
:10319000028B10BD10B52DED028BB0EE408AB0EE63
:1031A000480AFDF77BF9BDEC028B10BD70477047F4
:1031B00010B501221021024806F0F8F910BD0000F8
:1031C0000000024010B500221021024806F0EEF97E
:1031D00010BD0000000002407047000010B5012241
:1031E0001146024806F0E2F910BD0000000402405A
:1031F00010B500220121024806F0D8F910BD0000E8
:103200000004024010B543781B021BB2047823432C
:1032100000EE103AB8EEC01A1C4BD3ED001A21EEA6
:10322000211A81ED001AC3781B021BB28478234354
:1032300000EE103AB8EEC01A144BD3ED001A21EE8E
:10324000211A81ED011A43791B021BB20479234331
:1032500000EE103AB8EEC01A0C4BD3ED001A21EE76
:10326000211A81ED021A037A1B04C47943EA04236C
:103270008479234300EE903AB8EE601ADFED041A29
:1032800021EE211A82ED001A10BD00004802002034
:1032900000401C42704710B50446204617F07AF8EB
:1032A00010BD10B50446204616F006FA10BD000009
:1032B0004278120212B203781A4300EE102AF8EE96
:1032C000C00A144A92ED001A60EE810AC1ED000AAC
:1032D000C278120212B283781A4300EE102AF8EE76
:1032E000C00A0C4A92ED001A60EE810AC1ED010A93
:1032F0004279120212B203791A4300EE102AF8EE54
:10330000C00A044A92ED001A60EE810AC1ED020A79
:10331000704700004C02002010B50024FFF75CFF4E
:10332000FFF7B8FF15F054FD10B144F0800402E03F
:1033300015F0B4FC044315F043FF10B144F0400411
:1033400002E015F0C3FE0443204610BD2DE9FC4108
:1033500005460E461746002000900190FFF732FF09
:10336000922000F0D1F806226946122000F0ACF855
:10337000FFF71EFF9DF80100000200B29DF800104B
:1033800040EA010400EE104AB8EEC00A4C48D0ED05
:10339000000A20EE200A86ED000A9DF803000002D4
:1033A00000B29DF8021040EA010400EE104AB8EEA7
:1033B000C00A4348D0ED000A20EE200A86ED010A3B
:1033C0009DF80500000200B29DF8041040EA0104D7
:1033D00000EE104AB8EEC00A3948D0ED000A20EEDF
:1033E000200A86ED020AFFF703FF08226946002043
:1033F00000F06AF8FFF7F2FE9DF800000F2838D1C0
:103400009DF80300000200B29DF8021040EA01049A
:1034100000EE104AB8EEC00A2A48D0ED000A20EEAD
:10342000200A85ED000A9DF80500000200B29DF813
:10343000041040EA010400EE104AB8EEC00A214828
:10344000D0ED000A20EE200A85ED010A9DF8070064
:10345000000200B29DF8061040EA010400EE104A96
:10346000B8EEC00A1748D0ED000A20EE200A85ED1C
:10347000020AFFF7A7FEA22000F046F802226946E2
:10348000222000F021F8FFF793FE9DF80000C00015
:103490009DF8011040EA6114B4F5806F02DBA4F5D9
:1034A000006004B200EE104AF8EEC00AB4EE001A52
:1034B000B3EE070A00EE810A87ED000ABDE8FC8141
:1034C000480200204C02002070B506460C46154606
:1034D00046F0800000F018F806E0552000F014F8DF
:1034E0002070641C681EC5B2002DF6D170BD70B589
:1034F00004460D4644F0800000F006F8552000F028
:1035000003F8287070BD000001B582B04FF47A70E6
:10351000012301AA02A90090024808F085F89DF84D
:1035200004000EBD9023002010B502461378DB0086
:10353000547843EA6410B0F5806F02DBA0F50063B5
:1035400018B200EE100AF8EEC00AB4EE001AB3EE9C
:10355000070A00EE810A81ED000A10BD70B505462C
:103560000C462846FFF7D0FF2046FFF7CDFF70BD81
:1035700010B52DED068BFE4890EDEA0A00F5587067
:10358000D0ED2D0A30EE200ADFEDFA0A20EE200AF7
:10359000F0EE000A80EE201AB0EE418AF44880ED89
:1035A000C38AF548406880ED008AF14890EDC50A6D
:1035B000F148406880ED010AED48D0F8700D00EE4A
:1035C000100AB8EE400ADFEDED0A20EE200AEA48C4
:1035D000D0F8000180ED010AE7480BF023F8E64837
:1035E000D0F8E80090ED000AE14880EDC40AE24816
:1035F000D0F8E80090ED010ADD4880EDC60A90EDB4
:10360000C40A00F5427080ED7A0A9FEDDD0A80ED74
:103610007B0AD74890EDD40A00F5427080ED7C0A11
:10362000D34890EDBF0A10EE101A084619F0EEFECE
:1036300041EC1A0BB0EE4A0AF0EE6A0A14F044FFAD
:10364000B0EE409AF0EE609A9FEDCE0B53EC102B4B
:1036500051EC190B19F0A8F930D2C54890EDC40A05
:1036600010EE101A084619F0D1FE41EC1A0BB0EE1C
:103670004A0AF0EE6A0A14F027FFB0EE409AF0EE24
:10368000609A9FEDC20B53EC102B51EC190B19F003
:103690008BF913D2B648D0EDC40AD0F8700D00EE05
:1036A000100AB8EE400A60EE800AB14890EDC20AF6
:1036B0009FEDB21A00EE810A80EDC20A002400BF1D
:1036C00072E104EBC40000EB4001B24800EB810062
:1036D00090ED000ADFEDB00A30EEC00AA448D0ED4C
:1036E000CD0A30EE600A04EBC40100F5876000EB00
:1036F000C10080ED000A04EBC40000EB4001A548C6
:1037000000EB810090ED010AB1EE400A9848D0ED3F
:10371000CE0A30EE600A04EBC40100F5876000EBCE
:10372000C10080ED010A924890EDC20A04EBC40189
:1037300000F5876000EBC10080ED020A8C4890ED37
:10374000C40A04EBC40100F5876000EBC10080ED02
:10375000030A874890EDCD0A04EBC40100F58760A9
:1037600000EBC10080ED040A814890EDCE0A04EB25
:10377000C40100F5876000EBC10080ED050A04EB91
:10378000C4018448D83000EBC10090ED000A04EB7E
:10379000C4018048D83000EBC100D0ED0C0A30EEF7
:1037A000600A04EBC4017B48D83000EBC10080ED17
:1037B000060A04EBC4017748D83000EBC10090ED55
:1037C000010A04EBC4017348D83000EBC100D0ED0E
:1037D0000D0A30EE600A04EBC4016E48D83000EBED
:1037E000C10080ED070A04EBC4016A48D83000EB41
:1037F000C10090ED020A04EBC4016648D83000EB2A
:10380000C100D0ED0E0A30EE600A04EBC40161483D
:10381000D83000EBC10080ED080A04EBC4015D481C
:10382000D83000EBC10090ED030A04EBC401594805
:10383000D83000EBC100D0ED0F0A30EE600A04EB87
:10384000C4015448D83000EBC10080ED090A04EBF4
:10385000C4015048D83000EBC10090ED040A04EBDD
:10386000C4014C48D83000EBC100D0ED100A30EE56
:10387000600A04EBC4014748D83000EBC10080ED7A
:103880000A0A04EBC4014348D83000EBC10090EDB4
:10389000050A04EBC4013F48D83000EBC100D0ED6D
:1038A000110A30EE600A04EBC4013A48D83000EB4C
:1038B000C10080ED0B0A04EBC4013648D83000EBA0
:1038C000C10090ED000A04EBC4013248D83000EB8F
:1038D000C10080ED0C0A04EBC4012E48D83000EB87
:1038E000C10090ED010A04EBC4012A48D83000EB76
:1038F000C10080ED0D0A04EBC4012648D83000EB6E
:10390000C10090ED020A04EBC4012248D83000EB5C
:10391000C10080ED0E0A04EBC4011E48D83000EB54
:10392000C10090ED030A04EBC4011A48D83000EB43
:10393000C10080ED0F0A04EBC4011648D83000EB3B
:10394000C10090ED040A04EBC4011248D83000EB2A
:10395000C10080ED100A04EBC4010E48D83000EB22
:10396000C10090ED050A04EBC4010A48D83015E007
:103970008CB30020B81E053E58B200206F12833A67
:103980000000000000000040E17A843F000000A039
:103990009999E93FECB60020DB0FC93F00EBC1006D
:1039A00080ED110A601CC4B2022CFFF68AAE0648F4
:1039B00090ED700A80ED780A90ED710A80ED790A39
:1039C000BDEC068B10BD000094B6002000BFFEE7E2
:1039D00010B5024804F0DEFF10BD0000B421002045
:1039E00010B5024804F0D6FF10BD0000DC21002015
:1039F000F8B504461425206804F0B3FF064603E03A
:103A0000206804F0AEFF0646032E04D2281EA5F15E
:103A10000101CDB2F4D16B4604F11C02211D2068D6
:103A200004F0D2FDF8BD0346042B15D007DC7BB1B2
:103A3000012B0ED0022B0DD0032B12D10BE0202B2B
:103A40000BD0212B0AD0222B09D0232B09D107E040
:103A500008E007E006E005E004E003E002E001E042
:103A600000E000BF00BF002070470020704700004A
:103A700010B500220449054811F0B3FA044903487F
:103A800011F0A9FA002010BDC4390020202900201F
:103A9000C431002070B505460E4695B18EB134682C
:103AA000B4F5006F01D94FF4006424B122462946D1
:103AB0000848FDF724FB0848046001200749087006
:103AC00000BF2946064811F086FA054811F062FA4F
:103AD000002070BDC4410020840000208800002028
:103AE000202900202DE9F04104460D4600260A4811
:103AF000D0F89072D7F8140210B10120BDE8F0811F
:103B00002A462146044811F06CFA034811F0E4FA01
:103B100006463046F2E700002029002010B52DEDC2
:103B2000108B94B0B0EE40EAB0EE60BA0446B0EE4E
:103B30004E0AFCF777FCDFEDB90A20EE200AF0EE22
:103B400040BAB0EE4E0AFCF7A9FCDFEDB40A20EE55
:103B5000200AF0EE408AB0EE4B0AFCF763FCDFED82
:103B6000B00A9FEDAE1A41EE000AB0EE60CAB0EEA8
:103B70004B0AFCF793FCDFEDA90A20EE200AB0EE19
:103B8000409A3CEE6B0A20EE000A79EE680A39EEA4
:103B9000681A00EE810A8DED130A3CEE6B0ADFED28
:103BA000A10A20EE200AF0EE40EA39EE680ADFEDC5
:103BB0009D0A20EE200AF0EE40CA9DED130ADFEDCB
:103BC0009A0A30EE200ADFED980A30EE600AB0EE75
:103BD00040DA2EEEAE0A0CEEAC0A0DEE4D0A10EEF7
:103BE000101A084619F012FCCDE900019DED000BFA
:103BF00014F03CFD8DED040B1CEE900A19F006FC50
:103C0000CDE902019DED040B53EC102B9DED020B51
:103C100051EC100B18F04EFDCDE906019DED060BA1
:103C200051EC100B18F0E4FB0FEE900A3EEE8D0AFB
:103C3000F0EE400AB0EE6F0A14F082F9F0EE000ADE
:103C400020EE200AB0EE408AB0EE480AFCF7EAFB0C
:103C50007BEECC0A9FED751A41EE000AF0EE60FA99
:103C6000B0EE480AFCF71AFC78EEC90A9FED6F1A0D
:103C700041EE000ACDED070AF0EE6F0A9DED070A4E
:103C800014F05EF9F0EE409AB0EE4E0AFCF7CAFB73
:103C9000DFED620A60EE20FAB0EE480AFCF7C2FBE4
:103CA000DFED620A40EE80FAB0EE6FFAB0EE4E0A37
:103CB000FCF7F4FBDFED590A60EE20FAB0EE480A9B
:103CC000FCF7ECFBDFED590A40EE80FAF0EE6FDA1C
:103CD000DFED530A7FEE600A60EEA00A4DEEAD0AFA
:103CE000B0EE600A14F0FFFC8DED120A9FED4C0A55
:103CF0003FEE400AF0EE400AB0EE6D0A14F020F9F3
:103D0000B0EE40AA79EEC80AB0EE600AFCF7C6FB36
:103D1000F0EE40AA79EECB0AB0EE600AFCF7BEFBEB
:103D20008DED110A7EEE480AB0EE600AFCF7B6FB94
:103D30008DED100A7AEE690AB0EE600AFCF7AEFB70
:103D40008DED0F0A7AEE690AB0EE600AFCF76AFBA5
:103D50008DED0E0A7AEE480AB0EE600AFCF79EFB83
:103D60008DED0D0A7AEE480AB0EE600AFCF75AFBB8
:103D70008DED0C0A9DED0F0ADFED280A60EE200A9A
:103D80009DED100A20EE800AC0EE2A0ACDED0B0A46
:103D90009DED0D0ADFED210A60EE200A9DED110A6E
:103DA00020EE800AC0EE2A0ACDED0A0A9DED0E0A29
:103DB000DFED1A0A60EE200A9DED100A60EE800A1F
:103DC0009DED120A20EE2A0A80EE801A8DED091A66
:103DD0009DED0C0ADFED110A60EE200A9DED110A3F
:103DE00060EE800A9DED120A20EE2A0A80EE801A0B
:103DF0008DED081A9DED0B0A84ED000A9DED0A0A6F
:103E000084ED010A9DED090A84ED020A9DED080A80
:103E100084ED030A14B0BDEC108B10BDF6285C3E97
:103E2000000000009318043FB452883D9318843E6C
:103E300090ED000AD1ED000A20EE200AD0ED010A33
:103E400091ED011A00EE810AD0ED020A91ED021AFD
:103E500000EE810AD0ED030A91ED031A00EE810A0B
:103E6000D0ED040A91ED041A00EE810AD0ED050AA6
:103E700091ED051A00EE810AD0ED060A91ED061AC1
:103E800000EE810AD0ED070A91ED071A00EE810AD3
:103E9000D0ED080A91ED081A00EEC10AD0ED090A2A
:103EA00091ED091A00EEC10A82ED000A90ED0A0AAE
:103EB000D1ED000A20EE200AD0ED0B0A91ED011A97
:103EC00000EE810AD0ED0C0A91ED021A00EE810A93
:103ED000D0ED0D0A91ED031A00EE810AD0ED0E0A25
:103EE00091ED041A00EE810AD0ED0F0A91ED051A4A
:103EF00000EE810AD0ED100A91ED061A00EE810A5B
:103F0000D0ED110A91ED071A00EE810AD0ED120AE8
:103F100091ED081A00EEC10AD0ED130A91ED091ACD
:103F200000EEC10A82ED010A90ED140AD1ED000AFB
:103F300020EE200AD0ED150A91ED011A00EE810A5B
:103F4000D0ED160A91ED021A00EE810AD0ED170AA3
:103F500091ED031A00EE810AD0ED180A91ED041AD2
:103F600000EE810AD0ED190A91ED051A00EE810AE2
:103F7000D0ED1A0A91ED061A00EE810AD0ED1B0A67
:103F800091ED071A00EE810AD0ED1C0A91ED081A96
:103F900000EEC10AD0ED1D0A91ED091A00EEC10A2A
:103FA00082ED020A90ED1E0AD1ED000A20EE200AF1
:103FB000D0ED1F0A91ED011A00EE810AD0ED200A22
:103FC00091ED021A00EE810AD0ED210A91ED031A5B
:103FD00000EE810AD0ED220A91ED041A00EE810A6A
:103FE000D0ED230A91ED051A00EE810AD0ED240AE6
:103FF00091ED061A00EE810AD0ED250A91ED071A1F
:1040000000EE810AD0ED260A91ED081A00EEC10AF1
:10401000D0ED270A91ED091A00EEC10A82ED030ADC
:10402000704790ED000AD1ED000A20EE200AD0ED95
:10403000010A91ED011A00EE810AD0ED020A91ED1C
:10404000021A00EE810AD0ED030A91ED031A00EE88
:10405000810AD0ED040A91ED041A00EE810AD0ED38
:10406000050A91ED051A00EE810AD0ED060A91EDE0
:10407000061A00EE810AD0ED070A91ED071A00EE4C
:10408000810AD0ED080A91ED081A00EEC10AD0EDC0
:10409000090A91ED091A00EEC10AD0ED0A0A91ED64
:1040A0000A1A00EE810AD0ED0B0A91ED0B1A00EE10
:1040B000810A82ED000A90ED0C0AD1ED000A20EE93
:1040C000200AD0ED0D0A91ED011A00EE810AD0ED23
:1040D0000E0A91ED021A00EE810AD0ED0F0A91ED61
:1040E000031A00EE810AD0ED100A91ED041A00EED9
:1040F000810AD0ED110A91ED051A00EE810AD0ED8A
:10410000120A91ED061A00EE810AD0ED130A91ED24
:10411000071A00EE810AD0ED140A91ED081A00EE9C
:10412000C10AD0ED150A91ED091A00EEC10AD0EDD1
:10413000160A91ED0A1A00EE810AD0ED170A91EDE8
:104140000B1A00EE810A82ED010A90ED180AD1EDFA
:10415000000A20EE200AD0ED190A91ED011A00EEB6
:10416000810AD0ED1A0A91ED021A00EE810AD0ED13
:104170001B0A91ED031A00EE810AD0ED1C0A91EDA5
:10418000041A00EE810AD0ED1D0A91ED051A00EE29
:10419000810AD0ED1E0A91ED061A00EE810AD0EDDB
:1041A0001F0A91ED071A00EE810AD0ED200A91ED69
:1041B000081A00EEC10AD0ED210A91ED091A00EEAD
:1041C000C10AD0ED220A91ED0A1A00EE810AD0ED63
:1041D000230A91ED0B1A00EE810A82ED020A90ED9E
:1041E000240AD1ED000A20EE200AD0ED250A91ED37
:1041F000011A00EE810AD0ED260A91ED021A00EEB6
:10420000810AD0ED270A91ED031A00EE810AD0ED64
:10421000280A91ED041A00EE810AD0ED290A91EDE9
:10422000051A00EE810AD0ED2A0A91ED061A00EE79
:10423000810AD0ED2B0A91ED071A00EE810AD0ED2C
:104240002C0A91ED081A00EEC10AD0ED2D0A91ED6D
:10425000091A00EEC10AD0ED2E0A91ED0A1A00EEFD
:10426000810AD0ED2F0A91ED0B1A00EE810A82ED42
:10427000030A90ED300AD1ED000A20EE200AD0EDBD
:10428000310A91ED011A00EE810AD0ED320A91ED6A
:10429000021A00EE810AD0ED330A91ED031A00EE06
:1042A000810AD0ED340A91ED041A00EE810AD0EDB6
:1042B000350A91ED051A00EE810AD0ED360A91ED2E
:1042C000061A00EE810AD0ED370A91ED071A00EECA
:1042D000810AD0ED380A91ED081A00EEC10AD0ED3E
:1042E000390A91ED091A00EEC10AD0ED3A0A91EDB2
:1042F0000A1A00EE810AD0ED3B0A91ED0B1A00EE8E
:10430000810A82ED040A704790ED000AD1ED000A9F
:1043100020EE200AD0ED010A91ED011A00EE810A8B
:10432000D0ED020A91ED021A00EE810AD0ED030AE7
:1043300091ED031A00EE810AD0ED040A91ED041A02
:1043400000EE810AD0ED050A91ED051A00EE810A12
:10435000D0ED060A91ED061A00EE810AD0ED070AAB
:1043600091ED071A00EE810AD0ED080A91ED081AC6
:1043700000EEC10A82ED000A90ED090AD1ED000AB3
:1043800020EE200AD0ED0A0A91ED011A00EE810A12
:10439000D0ED0B0A91ED021A00EE810AD0ED0C0A65
:1043A00091ED031A00EE810AD0ED0D0A91ED041A89
:1043B00000EE810AD0ED0E0A91ED051A00EE810A99
:1043C000D0ED0F0A91ED061A00EE810AD0ED100A29
:1043D00091ED071A00EE810AD0ED110A91ED081A4D
:1043E00000EEC10A82ED010A90ED120AD1ED000A39
:1043F00020EE200AD0ED130A91ED011A00EE810A99
:10440000D0ED140A91ED021A00EE810AD0ED150AE2
:1044100091ED031A00EE810AD0ED160A91ED041A0F
:1044200000EE810AD0ED170A91ED051A00EE810A1F
:10443000D0ED180A91ED061A00EE810AD0ED190AA6
:1044400091ED071A00EE810AD0ED1A0A91ED081AD3
:1044500000EEC10A82ED020A90ED1B0AD1ED000ABE
:1044600020EE200AD0ED1C0A91ED011A00EE810A1F
:10447000D0ED1D0A91ED021A00EE810AD0ED1E0A60
:1044800091ED031A00EE810AD0ED1F0A91ED041A96
:1044900000EE810AD0ED200A91ED051A00EE810AA6
:1044A000D0ED210A91ED061A00EE810AD0ED220A24
:1044B00091ED071A00EE810AD0ED230A91ED081A5A
:1044C00000EEC10A82ED030A7047000010B52DED21
:1044D000068BB0EE409AB0EE608AF0EE418AB0EE04
:1044E000680A14F01DF9DFED100A60EE209AB0EEB4
:1044F000480A13F04DFEB0EE40AAB0EE680A13F081
:1045000047FECAEE00AAB0EE480A14F009F99FED82
:10451000061AF0EE490A51EE000AB0EE690A0AEEF8
:10452000E00ABDEC068B10BDCFF7D33E90ED000A3C
:10453000D1ED000A20EE200AD0ED010A91ED011A1A
:1045400000EE810AD0ED020A91ED021A00EE810A16
:10455000D0ED030A91ED031A00EE810AD0ED040AB2
:1045600091ED041A00EE810AD0ED050A91ED051ACD
:1045700000EE810A82ED000A704786B090ED002AB5
:104580008DED022A90ED022A8DED032A90ED012A8D
:104590008DED042A90ED032A8DED052A8DED000A9C
:1045A000CDED010A9DED022ADDED002A22EE222A40
:1045B000DDED032A9DED013A02EEC32AB0EE421A68
:1045C0009DED042ADDED002A22EE222ADDED052AEA
:1045D0009DED013A02EEC32AF0EE421A81ED001A77
:1045E000C1ED011A06B0704710B51048007A0728CF
:1045F00014D2DFE800F0141510040A0D070001F0D2
:1046000083FC10E001F080FC0DE001F027FC0AE0E3
:1046100001F00AFE07E001F003FD04E000BF00BF67
:1046200001F058FE00BF00BF10BD00008CB3002099
:1046300010B502F0B7FC10BD034890EDC20AD0EDF2
:10464000820A30EE600A70478CB3002010B52DED61
:10465000048B03F051FB30B13B48407A40F004003A
:104660003949487205E03848407A20F0040036495C
:1046700048723548406830B93348407A40F0080005
:104680003149487205E03048407A20F008002E4950
:10469000487200242AE004EBC4022B48103000EBDF
:1046A000C20090ED060A10EE101A084618F0AEFE91
:1046B00041EC190BB0EE490AF0EE690A13F004FF61
:1046C000B0EE408AF0EE608A9FED200B53EC102B89
:1046D00051EC180B18F063FA06D21B48407A40F0F0
:1046E00001001949487203E0601CC4B2042CD2DBFB
:1046F00000BF1548007A18B11348007A01281FD16D
:10470000144890ED050A10EE101A084618F07EFEC7
:1047100041EC190BB0EE490AF0EE690A13F0D4FE31
:10472000B0EE408AF0EE608A9FED0B0B53EC102B3D
:1047300051EC180B18F0F0F802D006480CF060FCB1
:10474000BDEC048B10BD00008CB300200000000005
:10475000000039409CBF0020000000000000000065
:1047600010B5C6B015F0B0F9F9490860F9A00FF01E
:1047700077FCF7494860FAA00FF072FCFC4908602A
:10478000FCA00FF06DFCFE4908600020FD49087098
:1047900002204870032088700020C870411E9FEDE1
:1047A000FA0A01230222CDE900101946E848103028
:1047B0000BF05CFE002001219FEDF30A0B46022264
:1047C000CDE900101146E24858300BF04FFE0020B2
:1047D00001219FEDED0A0B460222CDE900100321D5
:1047E000DB48A0300BF042FE0020411E9FEDE60AA0
:1047F00001230222CDE900100421D548E8300BF056
:1048000035FE00200121B7EE000A03460A46CDE935
:104810000010DE480BF02AFE0020411EB7EE000A11
:1048200003460122CDE900100221D84848300BF0A0
:104830001DFE0020411EB2EE040A02230122CDE932
:1048400000100321D14890300BF010FE4FF4FA71A4
:10485000CF48FCF7F5FC4FF48071CC48D830FCF71A
:10486000EFFC0021BA4880F8C81380F83414C94A14
:1048700007CA43AB07C3C74A0C3207CA40AB07C3DA
:10488000DFEDC50AB0EE0C0A43AA0021C3480CF0C4
:10489000DDFBF6EE000AB0EE000A40AA0021BF4898
:1048A0005C300CF0D3FBBB4A183207CA3DAB07C3E0
:1048B000DFEDBB0AB7EE080A3DAA0021B748B830C1
:1048C0000CF0C4FBB34A243207CA3AAB07C3F7EE75
:1048D000000AB1EE080A3AAA0021B2480CF0B6FB71
:1048E000DFEDB10A9FEDB10AAE480CF016F9A94A06
:1048F0003032D2E900109268CDE938023791DFED0D
:10490000A60A9FEDAB0A37AA0021A648B8300CF0E2
:104910009DFBA04A3C3207CA34AB07C3DFED9E0AB9
:104920009FEDA40A34AA0021A3480CF08FFB994AFA
:10493000483207CA31AB07C3DFED970AB1EE040A6C
:1049400031AA00219C485C300CF080FB914A543223
:1049500007CA2EAB07C3DFED900AB7EE000A2EAAF6
:1049600000219548B8300CF071FB00202B902C9062
:104970002D90DFED890AB1EE040A2BAA00218F48A1
:104980000CF064FB834A603207CA28AB07C3DFED33
:10499000820AB2EE0E0A28AA002188485C300CF088
:1049A00055FB7C4A6C3207CA25AB07C3DFED7A0A98
:1049B000B1EE040A25AA00218048B8300CF046FB6D
:1049C0000020229023902490724A783207CA1FABAD
:1049D00007C3DFED710AB3EE040A22AA002178486A
:1049E0000CF034FB9FED770A6C4880ED490A694A68
:1049F000843207CA1CAB07C3F0EE080AB0EE080AFF
:104A00001CAA002167485C300CF020FB9FED6D0A6A
:104A1000624880ED490ADFED6C0A9FED6C0A1FAA1F
:104A2000002100F5E6700CF011FB9FED660A5B4873
:104A300080ED770AF5EE000ABDEE000A00F5E6709B
:104A40000CF06BF8DFED600A9FED600A1FAA0021F1
:104A50005F480CF0FBFA9FED5B0A504880ED8E0A30
:104A6000F5EE000ABDEE000A59480CF056F8494A26
:104A7000903207CA19AB07C3DFED470A9FED550A0D
:104A800019AA002154480CF0E1FA424A9C3207CAA4
:104A900016AB07C3DFED400A9FED500A16AA0021AE
:104AA0004D485C300CF0D2FADFED3B0A9FED4B0A2B
:104AB00016AA00214848B8300CF0C8FA9FED480A01
:104AC00048480AF0A9FE9FED460A464808300AF019
:104AD000A3FE9FED430A434810300AF09DFE9FED70
:104AE000400A404818300AF097FE9FED3D0A3D48C5
:104AF00020300AF091FE9FED3A0A3A4828300AF039
:104B00008BFE9FED370A374830300AF085FE9FED67
:104B1000340A344838300AF07FFEB6EE000A3148D5
:104B200040300AF079FE0223002219462E4809F08F
:104B3000F3F9184BA8330FCB12AC0FC4154BB83395
:104B4000D3E90012D3E90203CDE910034EE00000DF
:104B50008CB30020696D755F6461746100000000B2
:104B6000524F424F545F434D445F44415441000013
:104B7000AC0200207573625F6F66666C696E6500DB
:104B8000B002002008C1002000001042BCB4002088
:104B900094B6002054ED010800000000C8B80020C1
:104BA000CDCC4C3F60BC0020CDCC4C3ECDCC4CBEDF
:104BB0000AD7A33D8FC2F53D74BD002088BE0020FA
:104BC000DCB90020CDCCCC3D000020420000A0424A
:104BD000F0BA00200000FA449CBF002000004843C7
:104BE0006666663FB0C0002058B20020CDE90E12C4
:104BF0001B4BD3E901211868DB68CDE90C13CDE923
:104C00000A02174B1033D3E901211868DB68CDE99C
:104C10000813CDE90602124B20330FCB02AC0FC4B0
:104C20001048D0F8000112A91EC91EC00D48D0F8C6
:104C3000F80006A91EC91EC00A48D0F814010EA922
:104C40001EC91EC00748D0F818010AA91EC91EC0F7
:104C50000448D0F80C0102A91EC91EC046B010BD00
:104C60001CEE010858B2002010B517F0C9F90B4925
:104C7000D1F86C1D401A0949C1F8700D17F0C0F940
:104C80000649C1F86C0D12F081FB11F0E7FF11F03D
:104C90008FFE12F09FFBFEF76BFC10BD8CB3002063
:104CA00010B502A106480CF005FA10BD63686173E7
:104CB0007369735F6664625F7370656564000000AA
:104CC0007CB800202DE9F0472DED068B84B0002044
:104CD00009EE100A804608EE100A08EE900A09EE66
:104CE000900A81468246F748007A062801D10120C1
:104CF00000E000200546F348007A062804D109F0B8
:104D0000F9F808B1012000E00020044600200190DD
:104D100002900390002C56D1002DFCD1E948006888
:104D2000B0F90600142806DCE6480068B0F9060071
:104D300010F1140F06DAE3480068B0F9060009EE36
:104D4000100A02E0002009EE100ADE480068B0F9FF
:104D50000400142806DCDB480068B0F9040010F1F8
:104D6000140F04DAD7480068B0F9048001E04FF06E
:104D70000008D4480068807A012828D1D14800680A
:104D8000B0F90200142806DCCE480068B0F9020031
:104D900010F1140F04DACB480068B0F902A001E06A
:104DA0004FF0000AC7480068B0F90000142806DC7C
:104DB000C4480068B0F9000010F1140F04DAC148CB
:104DC0000068B0F9009069E04FF0000966E0BD4866
:104DD0000068807A03282ED1BA480068B0F9020032
:104DE000142806DCB7480068B0F9020010F1140F6F
:104DF00006DAB4480068B0F9020008EE900A02E052
:104E0000002008EE900AAF480068B0F900001428AE
:104E100006DCAC480068B0F9000010F1140F06DAA7
:104E2000A8480068B0F9000008EE100A36E000203B
:104E300008EE100A32E0A3480068807A02282DD1DB
:104E4000A0480068B0F90200142806DC9D480068FC
:104E5000B0F9020010F1140F06DA9A480068B0F9B0
:104E6000020009EE900A02E0002009EE900A95483F
:104E70000068B0F90000142806DC92480068B0F918
:104E8000000010F1140F06DA8E480068B0F9000037
:104E900008EE100A02E0002008EE100A94B18A48D9
:104EA000006890ED000A8DED010A8748006890EDDA
:104EB000010A8DED020A8448006890ED020A8DED2A
:104EC000030A2DE065B19FED810A8DED010A9FED8A
:104ED0007F0A8DED020A9FED7D0A8DED030A1FE02A
:104EE000B8EEC90ADFED7A0A20EE200ADFED790A72
:104EF00020EE200A8DED010A9FED740A8DED020A65
:104F0000C8F1000000EE100AB8EEC00ADFED700A2A
:104F100020EE200AF1EE040A20EE200A8DED030AAD
:104F20006848007A07283FD2DFE800F041403F049C
:104F30000605070000BF00BF00BF9DED010AB0EEEF
:104F400040AA604890EDBF0AD0EDBF0A7AEE600A31
:104F50009FED611A01EE200A80EDBF0A9FED5B0A0A
:104F600080EDC00A9DED030A80EDC10A90ED930A21
:104F7000D0EDC10A9FED591A00EE810A80ED930A27
:104F8000D0ED930AB0EE600A12F056FE4D4880ED67
:104F9000930A90ED820AD0EDBF0A9FED501A00EE01
:104FA000810A80ED820A14E000BF00BF00BF9FEDC0
:104FB000470A444880EDBF0A9FED440A80EDC00ACD
:104FC0009FED420A80EDC10A9FED400A80ED930AF1
:104FD00000BF00BFF4B13C480068D0ED030AB0EE5A
:104FE000600A9FED3F1ADFED3F0A14F01FFC3548C1
:104FF00080ED8F0A34480068D0ED040AB0EE600AF4
:105000009FED371ADFED370A14F010FC2D4880EDC4
:10501000910A3CE04DB19FED2D0A2A4880ED8F0AA0
:105020009FED2A0A80ED910A31E0C9F1000000EEFF
:10503000900AF8EEE00A9FED261A60EE810A9FEDD5
:10504000281A60EE810AB0EE600A9FED251ADFEDA6
:10505000250A14F0EBFB1B4880ED8F0ACAF1000013
:1050600000EE900AF8EEE00A9FED191A60EE810A50
:105070009FED1B1A60EE810AB0EE600A9FED181AD0
:10508000DFED180A14F0D2FB0E4880ED910A0D48AE
:10509000007A801E05287CD2DFE800F0032EC2656E
:1050A00098009FED110A114880ED000A9FED070A54
:1050B0000F4880ED000A9FED050A0E4880ED000ABA
:1050C00005E100008CB30020AC02002000000000CD
:1050D0000C98C63A6666E63F8FC2F53D6F12033BF9
:1050E0009A99993E9A9999BE508D173ED002002008
:1050F000C8020020CC020020B8EEC80A5FED0C0AFE
:1051000060EE200A9FEDD61A9FEDD60A00EE810AC6
:10511000D54880ED000A1FED130AD44880ED000A3F
:105120001FED160AD24880ED000AD248807A012885
:1051300005D19FEDD10ACC4880ED000A12E0CD48A0
:10514000807A022805D11FED1A0AC74880ED000AAF
:1051500008E0C848807A032804D19FEDC80AC248F5
:1051600080ED000AB3E0B8EEC80A5FED270A60EEF2
:10517000200A9FEDBB1A9FEDC20A00EE810ABA48D1
:1051800080ED000A9FEDBF0AB94880ED000AB948DA
:1051900000E08CE090ED910AF0EE400A00F511710C
:1051A000B248B14A92ED000A0EF088FEB8EEE80A65
:1051B0005FED390A60EE200AAC4890ED000A1FED61
:1051C000381A00EE810A80ED000A80E09FEDA50A02
:1051D000F0EE400AB4B1AC48006890ED061AB0EEAB
:1051E000410A9FEDA51AB4EEC10AF1EE10FA08DBF0
:1051F0001FED451AB4EEC10AF1EE10FA01D8F0EE37
:10520000400A00BF9848C0ED000A1FED500A9748B9
:1052100080ED000A1FED530A954880ED000A56E024
:10522000B8EEC80A5FED560A60EE200A9FED8C1AB0
:105230009FED8C0A00EE810A8B4880ED000AB8EEE3
:10524000E80A5FED5D0A20EE200A5FED5B0A20EEC2
:10525000200A864880ED000A8648D0EDD12AB0EEBB
:10526000622A00F54270D0ED5E2AF0EE621A8148A3
:10527000D0EDF62AB0EE621A00F54270D0ED4C2A5D
:10528000F0EE620A7B48D0EDDB2AB0EE620A02F053
:10529000E5FEF8EEE90A1FED721A60EE810A9FED55
:1052A0007B1A00EEC10A724880ED000A0FE01FED84
:1052B000790A6E4880ED000A9FED6F0A6A4880ED1A
:1052C000000A1FED7E0A6A4880ED000A00BF00BF99
:1052D0001FED7D1ADFED680A634890ED000A14F0B7
:1052E000A5FA614880ED000A1FED831A5FED830A7D
:1052F0005E4890ED000A14F099FA5C4880ED000ACF
:105300009FED631A5FED8F0A594890ED000A14F083
:105310008DFA574880ED000A534890ED000A554831
:1053200080EDBB0A504890ED000A524880EDBC0A5F
:105330004E4890ED000A4F4880EDBD0A4B4890ED75
:10534000000A4C4880EDBE0A00204FE0514901EBB5
:10535000800191ED000A00EBC0024E49A03901EB3B
:10536000C20181ED000A1FEDA70A00EBC002494906
:10537000A03901EBC20181ED010A00EBC0024549F1
:10538000A03901EBC20191ED020A3A49D1EDBF0A01
:105390001FEDAE1A00EE810A00EBC00201F5157197
:1053A00001EBC20181ED020A324991EDBF0A00EB27
:1053B000C00201F5157101EBC20181ED030A2D490F
:1053C00091ED910A00EBC00201F5157101EBC201EC
:1053D00081ED040A1FEDC30A00EBC0022D49A0397C
:1053E00001EBC20181ED050A411CC8B20228ADDB08
:1053F0001F4890ED000A1F4880EDB90A1FEDCD0A45
:1054000080EDBA0A14F064FB0646002774B96DB942
:105410000EB9002100E0B189084640F2DC51884213
:1054200001D3FF2100E000210F4600E000270DB965
:1054300004B986B11848007818B118480078B84205
:1054400009D001201449087014480770FF22114642
:10545000007800F0A9FB04B0BDEC068BBDE8F08736
:105460008FC2F53C7B142E3ED0020020C8020020E3
:10547000CC0200208CB300200AD7233E3D0A573EC1
:10548000A4703D3EDE357ABEAC020020CDCCCC3ED1
:10549000DB0FC93F80B60020D5020020D4020020D7
:1054A00010B50EF027FC0EF06DFC10BD70B53F4836
:1054B000057A047A407A00F0040008B101246BE018
:1054C0003A48407A00F0080008B1012464E0374807
:1054D000407A00F0010008B101245DE000203EE0C8
:1054E00000EBC00101EB4102314901EB820191F86F
:1054F0006810A1B100EBC00101EB41022C4901EBA6
:105500008201496E64290AD9002200EBC00101EB37
:105510004103274901EB830181F868201DE000EB7E
:10552000C00101EB4102224901EB820191F86810B0
:1055300099B900EBC00101EB41021D4901EB820169
:10554000096E642909D9012200EBC00101EB410376
:10555000174901EB830181F86820411CC8B2022879
:10556000BEDB12480068C07A012808D10F480068E5
:10557000807A022801D104240EE005240CE00B48B7
:105580000068C07A032801D1032405E007480068B9
:10559000C07A022800D1062404480472AC4203D029
:1055A0000BF034FE0348047070BD00008CB3002083
:1055B000ECB60020C40200201CB5102018490123BD
:1055C000184ACDE900104FF47A71092000F009F96A
:1055D00015490870102015490123154ACDE900101E
:1055E0004FF47A71092000F0FCF81249087010207D
:1055F000114B01224FF4FA610090092000F06CF881
:105600000E4908700848007828B10A48007810B19F
:105610000846007808B900201CBD0120FCE7000006
:10562000B7B1002050ED010888020020C7B100206A
:1056300052ED010889020020D7B100208A02002023
:1056400008B510201C4B01224FF47A7100900920FC
:1056500000F0A4F8194908701023194A14210920F0
:1056600000F05DF8174908701023174A312109200E
:1056700000F055F8154908700920154908701020E8
:10568000487003208870E820C8700020087103204B
:10569000487106200F4908700848007840B1084654
:1056A000007828B10748007810B10848007808B998
:1056B000002008BD0120FCE7F7B100208C0200208B
:1056C00017B200208E02002027B200208F02002097
:1056D00007B200208D0200202DE9F04780460D46DC
:1056E00016461C46DDF8209014B1B9F1080F02DA15
:1056F0000020BDE8F08784F8008004206070281244
:10570000A070E5703012207166710621204600F00D
:10571000B2F80746A7713812E0710820E9E72DE9D1
:10572000F04107460D461446984614B1B8F1070FEC
:1057300002DA0020BDE8F0812770042060700220AA
:10574000A0702812E07025710521204600F093F822
:10575000064666713012A0710720EBE72DE9FF4184
:1057600004460D4616461F46DDF828800920ADF890
:105770000800002040EA0420ADF80A0046EA0520AF
:10578000ADF80C00032302AA4FF47A710920CDE989
:10579000007800F026F804B0BDE8F0812DE9F0476C
:1057A00080460D4616461C46DDF8209014B1B9F12E
:1057B000080F02DA0020BDE8F08784F8008010208E
:1057C00060702812A070E570301220716671062199
:1057D000204600F050F80746A7713812E071082003
:1057E000E9E72DE9F05F8346884617461E460A9C86
:1057F0000CB107B116B90020BDE8F09F70064FEA62
:10580000106909F10700C5B2A81CC1B20B9881420A
:1058100001DD0020F0E784F800B0102060704FEA4E
:105820002820A07084F8038000202071667184F81D
:10583000069000BF0EE037F810100A124100C91D93
:10584000C9B2625417F8102041000831C9B262543D
:10585000411CC8B2B042EEDB2946204600F00BF8EE
:10586000824604F805A04FEA2A21681CC0B22154E0
:10587000A81CC0B2C0E730B502460B464FF6FF7019
:10588000002112E0545C604000240AE000F00105B1
:1058900025B14AF2010585EA600000E04010651C70
:1058A000ECB2082CF2DB4C1CE1B29942EADB30BDD1
:1058B0002DE9F04107460D4690461C460CB1A54225
:1058C00002DA0020BDE8F081002609E0B81922467E
:1058D0004146FBF7C9FB08B90120F3E7701CC6B2CB
:1058E000281BC0B2B042F1DA0020EBE710B5FFF799
:1058F00063FE10B1FFF7A4FE18B907202449087011
:1059000010BD0020234908702349087023490870FE
:105910002349087023480068C06840F010002149FE
:105920000968C86000F0C2F903F048FE1E4908602B
:10593000084600681D4908601B4800681C4908604B
:1059400000201C4908701249087080201A4908700C
:10595000FF201A4908701A49087001201949087077
:10596000802019490870FF201849087018490870EC
:1059700004E000F02FF8022015F096FD04480078AE
:10598000062803D0024800780728F2D100BFB7E705
:105990009502002091020020920200209302002034
:1059A0009402002080260020980200209C02002003
:1059B000A002002096020020A4020020A5020020E0
:1059C000A6020020A7020020A8020020A9020020B1
:1059D000AA02002030B585B00020009003F0EEFD53
:1059E00004465B480068201A41F28831884204D995
:1059F00007205849087005B030BD5648007808287F
:105A00007ED2DFE800F004112D3A58699D9E52487D
:105A10000178524800F0BCF804F164005049086075
:105A200001204C4908708DE00025694601A800F06E
:105A3000D1F860B14B4803784B4A9DF8001001A89B
:105A4000FFF736FF18B1012502204249087035B929
:105A500043480068844202D300203E49087071E048
:105A600042480178424800F093F804F164003C4950
:105A7000086003203749087064E00025694601A8E2
:105A800000F0A8F870B137480378374A9DF8001045
:105A900001A8FFF70DFF28B1012536480460042056
:105AA0002C49087035B92E480068844202D3022080
:105AB0002849087046E02F48006884420BD32E48DE
:105AC00001782E4800F064F804F16400244908606D
:105AD00005202049087035E00025694601A800F03E
